:03000000020026D5
:0C002600787FE4F6D8FD75814602006D7D
:0D019800636F6E6E656374206F6B0D0A005F
:1000F7002023244F4B0A00000000000000000000EE
:1001070000000000000000000000000000000000E8
:0F01170000000000000001230002210000C100D1
:10018200758920758DFD758BFDD28ED29CC29FD252
:060192009ED2AFD2AC22A8
:10014C00E4FFFEE4FDFC0DBD00010CBC03F8BDE8B2
:0C015C00F50FBF00010EBE03EABFE8E78C
:010168002274
:0801A5008F993099FDC29922E7
:100127008B088A09890AAB08AA09A90A120169601A
:1001370013050AE50A7002050914F9120169FF128D
:0501470001A580E22289
:030023000200B226
:1000B200C0E0C0D075D000C000C00730982E052225
:1000C200E52270020521142424F8A699E52264048D
:1000D20045217016AF2274242FF8760D74252FF85F
:1000E200760A752100752200D200C298D007D0008E
:0500F200D0D0D0E03287
:1000030012018212014C7BFF7A0179981201273089
:0F00130000FD7B007A007924120127C20080F0E3
:10003200020003E493A3F8E493A34003F68001F2E1
:1000420008DFF48029E493A3F85407240CC8C333CF
:10005200C4540F4420C8834004F456800146F6DF9E
:10006200E4800B01020408102040809000F7E47E37
:10007200019360BCA3FF543F30E509541FFEE49393
:10008200A360010ECF54C025E060A840B8E493A35A
:10009200FAE493A3F8E493A3C8C582C8CAC583CA85
:1000A200F0A3C8C582C8CAC583CADFE9DEE780BE3D
:0101260000D8
:10016900BB010689828A83E0225002E722BBFE0294
:09017900E32289828A83E49322C7
:00000001FF
