:0A01E400C0F9A4B0999282F880904F
:10000300120173E5621460201460301460401460C0
:1000130050240470557D417F901201537F9012014B
:10002300317522008F2380427D427F901201537FDE
:10003300901201317524008F25802F7D437F90120C
:1000430001537F901201317526008F27801C7D405C
:100053007F901201537F901201317528008F298000
:1000630009AB2B7D407F901200E185282A85292B3F
:100073000562E562D394044003E4F5627FC812018C
:10008300CA8523997FC81201CA8525997FC81201A1
:10009300CA209803020006859921852199C29802F6
:0200A300000655
:0D01CA00EFD3940040077E7DDEFE1F80F322
:0101D7002205
:1000E1008F088D098B0A1201A3AF081200A5200009
:1000F10002C322AF091200A5200002C322AF0A12D7
:0C01010000A5200002C3221201B9D32285
:100153008F088D091201A3AF081200A5200002C366
:1001630022AF091200A5200002C3221201B9D32233
:020131008F0835
:100133001201A3E50804FF1200A52000037F00229B
:0F01430012010D8F09D20112018B1201B9AF0900
:01015200228A
:10017300D2AFD2ACD2AB758920E4F58775985075B0
:080183008DFD758BFDD28E226B
:1001A300D2A100D2A00000000000C2A10000000004
:0601B30000C2A0000022C2
:1001B900C2A100D2A00000000000D2A100000000EE
:0101C9002213
:1000A500E4FEEFA806088002C333D8FC30E704D28B
:1000B500A18002C2A100D2A00000000000C2A00ED3
:1000C500BE08DF0000D2A10000D2A000000030A1D0
:0B00D50004C2008002D200C2A00000A4
:0100E00022FD
:10010D00E4FFD2A1FE00C2A00000000000D2A000BA
:10011D0000EF25E0FF30A1010F00000EBE08E6C282
:03012D00A000002F
:0101300022AC
:10018B00200104C2A18002D2A1000000D2A0000075
:08019B00000000C2A0000022D8
:030000000201D822
:0C01D800787FE4F6D8FD75816202000318
:00000001FF
