:0D04DE0031393936313131335F310D0A00CB
:10027E000227000520232B4F4B0A00000000000030
:10028E000000000000000000000000000000000060
:10029E000000000000000000000002250000C10167
:1002AE00044E080402010421010204080229000080
:1003F500758920438901758C3C758AAF758DFD75AE
:0F0405008BFDD28ED29CC29FD29ED2AFD2AC22A0
:080003008F993099FDC299228A
:100365008B138A148915ED1DAE0470011C4E6017A0
:10037500AB130515E515AA147002051414F912013D
:08038500BDFF12000380DF221E
:030023000202BF17
:1002BF00C0E0C0D075D000C000C007309828052618
:1002CF00E5267002052514242BF8A699E52664046B
:1002DF0045257010AF26742B2FF8760D742C2FF840
:0F02EF00760AD201C298D007D000D0D0D0E0322A
:10047F00D29100D2900000000000C2910000000055
:06048F0000C290000022F3
:1004CD00C29100D2900000000000D2910000000007
:0104DD0022FC
:1002FE00E4FEEFA806088002C333D8FC30E704D230
:10030E00918002C29100D2900000000000C2900EB7
:10031E00BE08DF0000D2910000D2900000003091A4
:0B032E0004C2008002D200C290000058
:0103390022A1
:10038D00E4FFD291FE00C2900000000000D2900068
:10039D0000EF25E0FF3091010F00000EBE08E6C210
:0303AD00900000BD
:0103B000222A
:10046700200204C2918002D291000000D2900000C5
:08047700000000C29000002209
:0B033A00AF822FF8E6F580AF28AE2759
:10034500E4FDFCC3ED9FEC9E5015E4FBFA0BBB00EE
:0F035500010AEB64704A70F50DBD00010C80E4E5
:010364002276
:1004A900900000744E12033AA3E5826404458370F8
:0104B900F250
:0104BA00221F
:1004BB00900000742112033AA3E582640445837013
:0104CB00F23E
:0104CC00220D
:0404F200E4F580228B
:03000B00020026CA
:10002600C0E0C0F0C083C082C0D075D000C000C0A0
:0D00360001C002C003C004C005C006C00721
:10004300E4FFFEFDFC758C3C758AB0052AE52AAAFF
:1000530029700205291464644A7039FB7A0079080F
:1000630012013E7D017F9012044D7F901204328F66
:100073000DE4FD7F9012044D7F90120432AD078D85
:100083000E7B007A0079087D077C001203657529D1
:0400930000752A00CA
:10009700D007D006D005D004D003D002D001D000BD
:0B00A700D0D0D082D083D0F0D0E03267
:100237001204F21203F57F887E131203D57BFF7A2F
:100247000479DE1203B1AC06AD077BFF7A0479DED1
:100257001203657F887E131203D5D2A9D28CE52BB2
:10026700B431051204A980031204F23001F0E4F559
:0702770025F526C20180E716
:0603B1008B138A1489156C
:1003B700E4FFFEAB130515E515AA14700205141426
:0D03C700F91201BD60070FBF00010E80E6B6
:0103D4002206
:0704EB0000000000000022E8
:10000E00E4FDFCC3ED9FEC9E500A1204EB0DBD0007
:04001E00010C80EF62
:0100220022BB
:1003D500E4FDFCC3ED9FEC9E5015E4FAFB0BBB005E
:0F03E500010AEB64644A70F50DBD00010C80E461
:0103F40022E6
:10049500D2A70000C2A77F147E001203D5D2A77F82
:0404A5000302000E40
:10041400E4FA30A7FD7F017E0012000EEB25E0FB1D
:0D04240030A7010B20A7FD0ABA08E7AF03BF
:0104310022A8
:06013E008B0F8A108911ED
:1001440012049520A77230A7FD7F047E0012000ED2
:10015400751201120414AB0FAA10A911851282752D
:100164008300EF1202150512E512C3940640E47FE2
:10017400047E0012000EAB0FAA10A9119000021207
:1001840001D6FF9000011201D62FFFE433FE900048
:10019400031201D67C002FFFEC3EFE9000041201F6
:1001A400D62FFFEC3EFE9000051201D6B50709ECF0
:0801B400B506057401120203F7
:0101BC002220
:10044D0012047F1202FE200002C322AF051202FE2B
:0A045D00200002C3221204CDD322B6
:1004320012047FEF04FF1202FE2000037F0022124B
:0A044200038DD2021204671204CDEC
:01044C00228D
:030000000200B249
:0C00B200787FE4F6D8FD7581510200F95A
:1001BD00BB010689828A83E0225002E722BBFE0240
:0901CD00E32289828A83E4932273
:1001D600BB010CE58229F582E5833AF583E02250DE
:1001E60006E92582F8E622BBFE06E92582F8E22228
:0D01F600E58229F582E5833AF583E4932242
:10020300BB010689828A83F0225002F722BBFE01DA
:02021300F322D4
:10021500F8BB010DE58229F582E5833AF583E8F01F
:10022500225006E92582C8F622BBFE05E92582C8CB
:02023500F222B3
:1000BE00020237E493A3F8E493A34003F68001F21F
:1000CE0008DFF48029E493A3F85407240CC8C33343
:1000DE00C4540F4420C8834004F456800146F6DF12
:1000EE00E4800B010204081020408090027EE47E22
:1000FE00019360BCA3FF543F30E509541FFEE49307
:10010E00A360010ECF54C025E060A840B8E493A3CD
:10011E00FAE493A3F8E493A3C8C582C8CAC583CAF8
:10012E00F0A3C8C582C8CAC583CADFE9DEE780BEB0
:0102BE00003F
:00000001FF
